:020000040800F2
:100000000023002001010008B1170008891600082C
:100010008D16000879030008D519000800000000BB
:10002000000000000000000000000000B9170008F8
:100030007D03000800000000B5170008F91700084C
:100040001B0100081B0100081B0100081B01000820
:100050001B0100081B0100081B0100081B01000810
:100060001B0100081B0100081B0100081B01000800
:100070001B0100081B0100081B0100081B010008F0
:100080001B0100081B0100081B0100081B010008E0
:100090001B0100081B0100081B0100081B010008D0
:1000A0001B0100081B0100081B0100081B010008C0
:1000B0001B010008011800081B0100081B010008B3
:1000C0001B0100081B0100081B0100081B010008A0
:1000D0001B0100081B0100081B0100081B01000890
:1000E0001B0100081B0100081B010008DFF80CD0F1
:1000F00000F020F900480047F51D0008002300200B
:100100000648804706480047FEE7FEE7FEE7FEE7B1
:10011000FEE7FEE7FEE7FEE7FEE7FEE7FD17000865
:10012000ED0000082DE9F04D81EA030404F0004BD6
:1001300021F0004514464FF0000A23F0004150EA38
:10014000050220D054EA01021DD0C5F30A57024629
:10015000C5F31303C1F31300C1F30A5640F480152D
:1001600043F48013A7EB0608101BD64608F2FD38AF
:1001700073EB050002D308F1010801E092185B411E
:10018000B8F1000F03DA00200146BDE8F08D002031
:100190004FF48011064684460EE0171B73EB0507EB
:1001A00005D3121B63EB050306434CEA010C490817
:1001B0004FEA300092185B4150EA0107EDD152EA54
:1001C000030012D082EA040083EA0501084305D047
:1001D000101BAB4106D20122002306E000224FF0A3
:1001E000004302E06FF0010253101AEB06004CEBE3
:1001F000085110EB0A0041EB0B01BDE8F04D00F097
:100200003CB80EB540F2334102910021CDE9001116
:100210000A460B4600F040F803B000BD70B5C1F3CC
:100220000A5201F000450024C1F3130140F2FF33EC
:1002300041F480119A4201DA002070BD40F233434C
:100240009A42A2F2334203DC524200F006F800E088
:1002500090402C43F1D0404270BD202A04DB203A6C
:1002600021FA02F00021704721FA02F3D040C2F1D6
:100270002002914008431946704710B5141E73F1CF
:10028000000408DA401C41F1000192185B411A4356
:1002900001D120F0010010BD2DE9F04D92469B46A2
:1002A00011B1B1FA81F202E0B0FA80F22032904648
:1002B00000F052F804460F4640EA0A0041EA0B01FA
:1002C00053465A46084313D0114653EA010019D049
:1002D000C8F140025046FFF7C0FF05460E465046A3
:1002E0005946424600F038F8084305D0012004E0A2
:1002F00020463946BDE8F08D0020054346EAE07609
:100300002C4337430A986305E40AA0EB0800002257
:10031000FD0A44EA47540A3002D500200146E9E7C5
:10032000010510196941DDE9084500196941BDE879
:10033000F04DA2E7064C074D06E0E06840F00103EF
:1003400094E8070098471034AC42F6D3FFF7D2FE8A
:10035000642F0008842F0008202A04DB203A00FACA
:1003600002F1002070479140C2F1200320FA03F30C
:10037000194390407047000070470000704700002C
:10038000B0B5044600F02AF9054640F20800C2F272
:1003900000000078611C18BF044400BF00F01EF983
:1003A000401BA042FAD3B0BD2DE9F04F82B00E68D9
:1003B000002E00F0038141F20042C4F20102042346
:1003C00040F2004E904208BF03234FF6FF7CC4F278
:1003D000010E009300240123C1F2100C4FF0000A1B
:1003E0004FF0000949E000BF012704F00C030F2281
:1003F0009A402BEA020207FA03F34FEA9A051A43DE
:1004000046F82520D1F804B040F20C455FEACB2233
:10041000DEF8082054BF22EA080242EA0802C4F2C9
:100420000105CEF808202A685FEA8B2354BF22EA30
:10043000080242EA08022A605FEA8B33DEF80420F1
:1004400054BF22EA080242EA08025FEACB33CEF840
:100450000420DEF800204FF0010354BF22EA080216
:1004600042EA0802CEF800200E680AF1010A36FAC4
:100470000AF204F1040400F0A18003FA0AF816EA73
:10048000080FF1D04E68664512DC122E56D8DFE810
:1004900006F0350B45495555555555555555555546
:1004A0005555554D510000BFD1F80C9046E000BFA6
:1004B0004FF6FF72C1F2210296420FDC0022C1F218
:1004C000110296421AD00022C1F21202964215D0B1
:1004D0000022C1F22102964210D02FE00022C1F288
:1004E000220296420AD00022C1F23102964205D081
:1004F0000022C1F23202964220D100BF8A684AB17E
:10050000012A14BFC0F81480C0F810804FF0080909
:1005100014E000BF4FF0040910E000BFCA6802F108
:1005200008090BE04FF0000908E000BFCA6802F1BB
:10053000040903E0CA6802F10C0900BF224606461E
:10054000BAF1080F24BF203A043637680F259540CA
:1005500027EA050509FA02F22A433260CA79D2066F
:100560007FF582AF41F21803C4F202031A68AEF5B8
:100570007E7642F001021A601A6802F001020192CE
:10058000019A2AF0030256F802B040F60002C4F2C3
:100590000102904210D040F60042C4F201029042A3
:1005A0003FF422AF41F20002C4F20102009F9042E8
:1005B00008BF022719E700BF002716E702B0BDE811
:1005C000F08F00008068084018BF012070470000CD
:1005D000002A08BF090401617047000040F2B8001A
:1005E000C2F200000068704740F2080040F2B80113
:1005F000C2F20000C2F2000100780A6810440860EC
:100600007047000080B542F20000C4F202000168A9
:1006100041F010010160032000F08EF80F2000F07F
:1006200005F800F027F8002080BD000070B540F20A
:100630000806C2F2000640F210013278C2F2000150
:100640004FF47A730968B3FBF2F20446B1FBF2F19E
:10065000084600F03BFB0F2C4FF0010508D838B9D5
:100660004FF0FF3021460022002500F039F8746079
:10067000284670BD82B041F21800C4F20200016841
:10068000022241F001010160016801F001010191C4
:100690000199416841F080514160406800F080500C
:1006A000009000980420C4F20100016862F31A610E
:1006B000016002B070470000002848BF7047C1B217
:1006C00000F01F00012202FA00F04EF20012CEF2FA
:1006D000000242EAD10121F00301086070470000E6
:1006E00010B54EF60C5CCEF2000CDCF80030C3F313
:1006F000022E8EF00704042C28BF0424BEF103034D
:100700004FF0FF3E0EFA04F438BF0023A143994096
:100710000EFA03F39A43114300F00F0200F1604315
:100720000901043A03F564436244002848BF02F11A
:100730000C03197010BD00004EF60C51CEF20001F2
:100740000A684FF6FF031A4060F30A2242F0806005
:1007500040F0FD70086070472DE9F04381B000283B
:1007600000F0858042F20008C4F202080446D8F87E
:1007700000000D4600F0070088420CD2D8F80000B7
:1007800020F007002843C8F80000D8F8000000F067
:100790000700A8426BD1206841F204098107C4F226
:1007A000020917D5410705D5D9F8001041F4E061D9
:1007B000C9F80010010705D5D9F8001041F46051BF
:1007C000C9F80010D9F80010A26821F0F001114317
:1007D000C9F80010C00741D1D8F8000000F00700A8
:1007E000A8420CD9D8F8000020F007002843C8F828
:1007F0000000D8F8000000F00700A84237D12068B8
:10080000410707D5D9F80010E26821F4E0611143EF
:10081000C9F80010000708D5D9F80000216920F4B4
:10082000605040EAC100C9F80000D9F8002002F089
:100830000C00082841F20020C0F27A0050D142F6A4
:100840005273C2F38341C0F60003595CD2033BD418
:1008500040F60010C0F23D00484341E060680228C5
:100860000AD001282AD159F8041C890308D4012090
:1008700001B0BDE8F08300BF59F8041C8901F6D52A
:10088000D9F8001021F003010843C9F80000FFF770
:10089000A5FE064641F28837D9F80000616800F0ED
:1008A0000C00B0EB810F97D0FFF798FE801BB84289
:1008B000F2D9032001B0BDE8F08300BF59F8041C51
:1008C0008907D4D5DCE700BFD9F8002042F6507381
:1008D000C2F34042C0F600039A5C4843B0FBF2F01A
:1008E000D9F8001042F64072C1F30311C0F60002BD
:1008F000515C40F2100220FA01F140F20C00C2F209
:1009000000000068C2F200021160FFF78FFE0020B5
:1009100001B0BDE8F08300002DE9F04182B000286D
:1009200068D00446007841F20006C007C4F202060F
:1009300025D0706800F00C0004281BD0706800F00F
:100940000C00082802D17068C00313D46068002826
:1009500000F06881B0F5A02F00F07C81B0F5803FF9
:1009600000F07C81306820F480303060306820F402
:10097000802076E13068800301D56068D0B32078AC
:10098000800718D5706810F00C0F07D0706800F061
:100990000C0008286ED17068C0036BD430688007E3
:1009A00002D52069012825D13068616920F0F8005E
:1009B00040EAC1003060207800071FD4207840074B
:1009C00032D4E56995B1706800F00C00082840F059
:1009D0008F80012D0ED07068216A00F480328A4227
:1009E00008D1616A00F47010884203D1002002B07F
:1009F000BDE8F081012002B0BDE8F081A0690028C7
:100A000062D00020C4F242200121C0F88014FFF718
:100A1000E5FD0546706A800700F18C80FFF7DEFD7A
:100A2000401B0228F6D92AE1F06910F0805808D15D
:100A3000F06940F08050F061F06900F08050009063
:100A4000009847F20007C4F200073868C00529D4AF
:100A5000386840F480703860FFF7C0FD054600BF7D
:100A60003868C0051ED4FFF7B9FD401B6428F7D9CC
:100A700005E100BF2069002840F20000C4F24220D6
:100A800000F0828001210160FFF7A8FD054600BF4C
:100A9000306880073FF588AFFFF7A0FD401B0228B4
:100AA000F6D9ECE0E068002800F08080052800F02E
:100AB0009780012800F09880306A20F001003062B1
:100AC000306A20F0040092E00020C4F242200021AD
:100AD000C0F88014FFF782FD054600BF706A8007EA
:100AE0007FF56CAFFFF77AFD401B0228F6D9C6E010
:100AF0000027C4F2422700203866FFF76FFD022D61
:100B000005460BD13068800140F1BE80FFF766FDDD
:100B1000401B02284FF00300F4D968E730688001D9
:100B20007FF564AFFFF75AFD401B02284FF003002A
:100B3000F4D95CE740F21000C2F20000006844F60D
:100B4000D351C1F26201A0FB0101480A019000BF2C
:100B500000BF0198411E002801913FF42FAF00BF54
:100B60000198411E002801913FF428AF00BF019871
:100B7000411E002801913FF421AF00BF0198411EA2
:100B800000280191E4D119E700210160FFF726FD5B
:100B9000054600BF306880077FF50DAFFFF71EFDEB
:100BA000401B02284FF00300F4D920E7306A20F000
:100BB00001003062306A20F004003062FFF70EFD61
:100BC000054641F2883700BF306A800720D5FFF71D
:100BD00005FD401BB8424FF00300F5D907E700BF01
:100BE000306A40F004003062306A40F00100306248
:100BF000FFF7F4FC054641F2883700BF306A8007F2
:100C000006D4FFF7EBFC401BB842F7D937E000BF32
:100C1000B8F1000F7FF4D5AEF06920F08050F0619C
:100C2000CFE600BF306820F480303060306820F4B8
:100C300080203060FFF7D2FC054600BF306880039B
:100C40007FF59DAEFFF7CAFC401B64284FF0030000
:100C5000F4D9CCE6306840F480203060306840F44D
:100C600080303060FFF7BAFC054600BF3068800373
:100C70003FF585AEFFF7B2FC401B6428F6D9032090
:100C800002B0BDE8F08100BF206AB0F5803F05D119
:100C90007168A26821F40031114371607168626A61
:100CA00021F4741111430843706001203866FFF786
:100CB00095FC0446306880013FF598AEFFF78EFC46
:100CC000001B02284FF00300F4D990E6411E0020DB
:100CD000B0EB116F1CBF012070474EF21002CEF234
:100CE000000251604EF62351CEF20001F0230B704A
:100CF0000721906011607047704700007047000046
:100D000010B590F83C20012A4FF0020233D080F851
:100D10003D200268D2F804E0D2F808C00C682EF03A
:100D20007003234340F2FF74C4F20004A2425360F4
:100D30000ADCB2F1804F13D040F20043C4F200034A
:100D40009A420DD011E000BF42F60043C4F2010305
:100D50009A4205D040F60003C4F200039A4204D13F
:100D600049682CF08003194391600121002280F82A
:100D70003D1080F83C20104610BD0000002804BF44
:100D80000120704710B5044690F83D0028B90020B6
:100D900084F83C00204600F067F8022084F83D000B
:100DA000206840F2FF730268C4F2000342F6004C70
:100DB0009842C4F2010C15DCB0F1804F1AD040F219
:100DC0000041C4F20001884214D0984218DCB0F10E
:100DD000804F1DD040F20041C4F20001884217D07C
:100DE0001AE000BF604505D040F60001C4F20001E2
:100DF0008842EAD1A16822F070020A439842E6DDF7
:100E0000604505D040F60001C4F20001884203D1DC
:100E1000216922F440720A43A36922F08001D4F8C8
:100E200004E0E268194360450160C262C0F828E04E
:100E300002D16169CCF8301001214161002084F8B1
:100E4000461084F83E1084F83F1084F8401084F86F
:100E5000411084F8421084F8431084F8441084F858
:100E6000451084F83D1010BD80B582B0006840F296
:100E70000041C4F20001884214D042F60041C4F29D
:100E8000010188420CD141F21800C4F2020001684D
:100E900041F400610160006800F400600190019875
:100EA00002B080BD41F21800C4F202004168002285
:100EB00041F0020141604068022100F00200009010
:100EC00000981D20FFF70CFC1D2002B0BDE88040FB
:100ED000FFF7F2BB90F83D1001291CBF01207047BD
:100EE000022180F83D10006840F2FF71C4F2000159
:100EF000884209DCB0F1804F12D040F20041C4F2C8
:100F0000000188420CD012E042F60041C4F2010117
:100F1000884205D040F60001C4F20001884206D1A3
:100F2000816801F00701062904BF002070470168AD
:100F300041F00101016000207047000080B590F889
:100F40003C20012A4FF0020200F0C28080F83D20D0
:100F5000D0F800C04FF67772DCF8083023EA0202BE
:100F6000CCF808200B684F2B28DC1F2B44DD202BEE
:100F700045D0302B43D0402B40F0AC80D1F804E07A
:100F8000C968DCF82030DCF8202022F00102CCF81F
:100F90002020DCF8182022F0F00242EA011123F0B0
:100FA0000A0242EA0E02CCF81810CCF82020DCF835
:100FB000081041F0470121F0300180E06F2B27DD60
:100FC000B3F5005F48D0B3F5805F7AD0702B40F066
:100FD0008180D1E901E3C968DCF8082043EA0E0307
:100FE00022F47F4243EA01211143CCF80810DCF8D7
:100FF000081041F0770162E00BB1102B6AD1DCF8E8
:10100000081021F07001194341F0070157E000BFBB
:10101000502B35D0602B5DD1D1F804E0C968DCF8E5
:101020002030DCF8202022F01002CCF82020DCF860
:10103000182022F4704242EA013123F0A00242EA71
:101040000E12CCF81810CCF82020DCF8081041F073
:10105000670121F0100132E0D1E901E3C968DCF851
:10106000082043EA0E0322F47F4243EA01211143A0
:10107000CCF80810DCF8081041F480411FE000BFF4
:10108000D1F804E0C968DCF82030DCF8202022F038
:101090000102CCF82020DCF8182022F0F00242EA0D
:1010A000011123F00A0242EA0E02CCF81810CCF823
:1010B0002020DCF8081041F0570121F02001CCF885
:1010C00008100022012180F83D10002180F83C101A
:1010D000104680BD0122F5E77047000010B5016899
:1010E00004460869800744BFC8685FEA807039D445
:1010F0000869400744BFC8685FEA40703ED4086989
:10110000000744BFC8685FEA007045D40869C0069C
:1011100044BFC8685FEAC0604AD40869C0071CBF02
:10112000C8685FEAC07051D10869000644BFC8684A
:101130005FEA006052D40869400644BFC8685FEAAD
:10114000406053D40869800646BFC8685FEA806083
:1011500010BD6FF0200220460A61BDE81040FFF785
:10116000CDBD00BF6FF002000861012020778869C3
:10117000800743D02046FFF7AFFF45E06FF0040043
:10118000086102202077886910F4407F40D0204613
:10119000FFF7A2FF42E000BF6FF0080008610420E3
:1011A0002077C86980073DD02046FFF795FF3FE0D4
:1011B0006FF01000086108202077C86910F4407FA4
:1011C0003AD02046FFF788FF3CE000BF6FF00100F7
:1011D0000861204600F054FA2168A5E76FF080000E
:1011E00008612046FFF788FD2168A4E76FF0400002
:1011F0000861204600F046FA2168A3E7204600F087
:101200004DF8204600F0CAF92168002020776FE7EA
:10121000204600F043F8204600F0C0F92168002085
:1012200020776CE7204600F039F8204600F0B6F948
:1012300021680020207769E7204600F02FF820463B
:1012400000F0ACF921680020207766E780B586B011
:1012500040F200410068C4F200010022884204927A
:1012600002D006B080BD00BF41F21800C4F20200F7
:10127000026842F004020260006800F0040001907D
:101280000198C020029002200390059001F5823061
:1012900002A9FFF789F806B080BD00007047000082
:1012A0002DE9F04390F83C30012B04BF0220BDE84B
:1012B000F0834FEAB202032A3CD8DFE802F003438E
:1012C00081BD00BF036842F600461D6A1A6AC4F277
:1012D000010622F001021A621A465C6852F818CF21
:1012E000B3428E68D1F800E025F0020545EA060514
:1012F0000CD1CE68D1E9057824F4407425F00C05B2
:1013000026F004063C43354344EA08042CF07307F6
:1013100047EA0E075C609F614F6809695F631D6261
:101320009F6947F008079F619F6927F004079F6145
:10133000B2E000BF0121002280F83C200846BDE851
:10134000F08300BF036842F600461D6A1A6AC4F2C1
:10135000010622F010021A621A46D3F804C052F8AD
:10136000184FB3428E68D1F800E025F0200545EA19
:10137000061510D1CE68D1E9058725F0C0096FF0B8
:10138000400505EA06152CF4406647EA080745EAD9
:10139000090546EA870C24F4E64444EA0E27C3F81C
:1013A00004C09F614F6809699F631D629F6947F48C
:1013B00000679F619F6927F480679F616BE000BFB2
:1013C000036842F600461D6A1A6AC4F2010622F456
:1013D00080721A621A46D3F804C052F81CEFB34266
:1013E0008E680C6825F4007545EA062511D1CE6893
:1013F000D1E9058725F44069360240F2FF4526EA27
:1014000005052CF4405647EA080745EA090546EA6F
:10141000071C2EF073072743C3F804C0DF614F6831
:101420000969DF631D62DF6947F00807DF61DF6973
:1014300027F00407DF612FE0036842F60047D3F886
:1014400020C01A6AC4F2010722F480521A621A46B6
:101450005C6852F81C5FD1F800E08E68BB4204D192
:101460004F6924F4804444EA87142CF4005747EA77
:10147000063725F4E64646EA0E265C60DE614E68D5
:1014800009691E641F62DF6947F40067DF61DF6975
:1014900027F48067DF610902136819431160002196
:1014A000002280F83C200846BDE8F083002804BFF5
:1014B0000120704710B5044690F83D0028B900207F
:1014C00084F83C00204600F067F8022084F83D00D4
:1014D000206840F2FF730268C4F2000342F6004C39
:1014E0009842C4F2010C15DCB0F1804F1AD040F2E2
:1014F0000041C4F20001884214D0984218DCB0F1D7
:10150000804F1DD040F20041C4F20001884217D044
:101510001AE000BF604505D040F60001C4F20001AA
:101520008842EAD1A16822F070020A439842E6DDBF
:10153000604505D040F60001C4F20001884203D1A5
:10154000216922F440720A43A36922F08001D4F891
:1015500004E0E268194360450160C262C0F828E017
:1015600002D16169CCF8301001214161002084F87A
:10157000461084F83E1084F83F1084F8401084F838
:10158000411084F8421084F8431084F8441084F821
:10159000451084F83D1010BD7047000070470000F2
:1015A00041B1082910D0042914BF00F1410200F113
:1015B0003F020BE090F83E20012A1CBF012070473B
:1015C000022280F83E2013E000F140021278012A46
:1015D0001CBF012070470222082907D0042914BF2C
:1015E00080F8412080F83F2002E000BF80F84020D2
:1015F000006801F01F010122036A8A4023EA020108
:101600000162036A42F64441C4F201011A43A1F1A6
:101610004403984202620FD040F2FF71C4F200010D
:10162000884213DCB0F1804F1CD040F20041C4F27C
:101630000001884216D01CE00A6842F400420A60A9
:1016400040F2FF71C4F200018842EBDD42F6004136
:10165000C4F20101884205D040F60001C4F2000145
:10166000884206D1816801F00701062904BF0020E5
:101670007047016841F001010160002070470000DF
:101680007047000070470000FEE70000FEE7000022
:1016900070B540F2680540F60004C2F200054FF450
:1016A0009C7040F22D11C4F20104C5E900012046EE
:1016B00020210122FEF78CFF204610210022FEF798
:1016C00087FF40F27006C2F200062868316804F510
:1016D00080644863204602210122FEF779FF2046FC
:1016E00001210022FEF774FF68683168886370BDCD
:1016F00070B540F2680540F60004C2F200054FF4F0
:101700009C7040F22D11C4F20104C5E9000120468D
:1017100020210122FEF75CFF204610210022FEF767
:1017200057FF40F27006C2F200062868316804F5DF
:1017300080644863204602210122FEF749FF2046CB
:1017400001210022FEF744FF68683168886370BD9C
:1017500070B540F2680540F60004C2F2000540F2A0
:10176000371040F22D11C4F20104C5E900012046F2
:1017700010210122FEF72CFF204620210022FEF737
:1017800027FF40F27006C2F200062868316804F5AF
:1017900080644863204601210122FEF719FF20469C
:1017A00002210022FEF714FF68683168886370BD6B
:1017B000FEE70000704700007047000010B540F6DB
:1017C0000004C4F20104204610210122FEF700FFAC
:1017D000204620210122FEF7FBFE04F5806420460E
:1017E00001210122FEF7F4FE204602210122BDE87C
:1017F0001040FEF7EDBE0000FEF7F6BE7047000099
:1018000040F27000C2F20000FFF768BCF0B581B092
:1018100040F2680640F60004C2F200064FF49C70E5
:1018200040F22D11C4F20104C6E900012046202136
:101830000122FEF7CDFE204610210022FEF7C8FE51
:1018400040F27007C2F200073068396804F580651D
:101850004863284601210122FEF7BAFE28460221EC
:101860000022FEF7B5FE7068396888634FF439705E
:10187000FEF786FD204620210122FEF7A9FE204624
:1018800010210122FEF7A4FE284601210122FEF7C5
:101890009FFE28460221012201B0BDE8F040FEF77C
:1018A00097BE0000F0B581B040F2680640F6000433
:1018B000C2F200064FF49C7040F22D11C4F20104F4
:1018C000C6E90001204620210122FEF781FE2046C4
:1018D00010210022FEF77CFE40F27007C2F20007E2
:1018E0003068396804F58065486328460121012283
:1018F000FEF76EFE284602210022FEF769FE7068A0
:101900003968886340F26310FEF73AFD20462021D3
:101910000122FEF75DFE204610210122FEF758FE4F
:10192000284601210122FEF753FE2846022101220A
:1019300001B0BDE8F040FEF74BBE0000F0B581B04D
:1019400040F2680640F60004C2F200064FF49C70B4
:1019500040F22D11C4F20104C6E900012046102115
:101960000122FEF735FE204620210022FEF730FE40
:1019700040F27007C2F200073068396804F58065EC
:101980004863284602210122FEF722FE2846012153
:101990000022FEF71DFE70683968886340F263100C
:1019A000FEF7EEFC204620210122FEF711FE204624
:1019B00010210122FEF70CFE284601210122FEF72C
:1019C00007FE28460221012201B0BDE8F040FEF7E3
:1019D000FFBD0000FEE70000F0B584B090F801E024
:1019E00090F800C0AEF1010343EA0C03DBB20F2B09
:1019F0000CD8C378DB0709D101EB8E1303EB8C0302
:101A000053F8403C0093012301E000BF00230CF198
:101A1000010444EA0E04E4B20F2C0BD8C478A407E6
:101A200008D401EB8E1404EB8C0464686D4645F811
:101A3000234001330EF1010444EA0C04E4B20F2CFC
:101A40000BD8C478640708D401EB8E1404EB8C0423
:101A5000246C6D4645F823400133ACF1010444EA9F
:101A60000E04E4B20F2C0CD8C078000709D401EBA7
:101A70008E1000EB8C0050F8040C6C4644F82300E8
:101A80000133022B7DD3DDE900048588A688B542A9
:101A900004D805D18578A678B5421DD9CDE9004096
:101AA000981E2BD0009C029DA688AF88BE4205D808
:101AB00006D1A678AF78BE4240F2868000950294A7
:101AC000032B1BD0009C039DA688AF88BE420BD978
:101AD0000095039412E000BFE2D18579A679B54262
:101AE00088BFCDE90040DBE708D1A678AF78BE42D9
:101AF000EED803D1A679AF79BE42E9D8002840D00C
:101B0000022B20D0DDE90145A688AF88BE4204D86B
:101B100005D1A678AF78BE425ED9CDE90154032B3A
:101B200011D0019B039C9D88A688B54209D80AD193
:101B30009D78A678B54204D805D19D79A679B5429D
:101B400001D90194039301281BD0DDE901439D884D
:101B5000A688B54204D805D19D78A678B54243D968
:101B6000CDE9013402280CD3DDE9020384889D8885
:101B7000AC4204D805D184789D78AC423CD9CDE9FB
:101B80000230012A04D100980079C0B204B0F0BD3F
:101B900001EB8E1000EB8C0050F8402C00998A422B
:101BA0000AD042688A420BD0026C08208A4208BFE1
:101BB0000420C0B204B0F0BD0120C0B204B0F0BD3A
:101BC0000220C0B204B0F0BD7FF47AAFA679AF793D
:101BD000BE423FF673AF73E7A1D1A679AF79BE429B
:101BE00088BFCDE901549AE7BCD19D79A679B54269
:101BF00088BFCDE90134B5E7C3D184799D79AC4282
:101C000088BFCDE90230BCE72DE9F0474FF6FF7100
:101C100000F1400C002300BFC658C418B180D4E9BD
:101C20000165D4E9032EB180A9809180D4E905260D
:101C3000AEF804109180B180D4E907269180B1807C
:101C4000D4E909269180B180D4E90B269180B18036
:101C5000D4E90D2691800CEB0302B18052F8042CDC
:101C60005CF803609180B180D4E9112680339180C3
:101C7000B180D4E91326B3F5806F9180B180D4E9A7
:101C800015269180B180D4E917269180B180D4E9DE
:101C900019269180B180D4E91B269180B180D4E9C6
:101CA0001D269180E26FB1809180B5D1D0E9771285
:101CB000D0E987364FF0000CA6F804C0A2F804C0A3
:101CC000A3F804C0A1F804C009E000BF0CF1010CA6
:101CD000BCF1100F00F1400008BFBDE8F087BCF177
:101CE000080E38BFCCF1080EBCF107084FF0000118
:101CF0004FF00C094FF0080438BFCCF1070806E09C
:101D0000043109F110091029A4F10404DED000EB1C
:101D1000090555F80C5CAE88BEB1B1F1080638BFB4
:101D2000264606EB0E074644CB1F38BF631E03EB67
:101D30000E02B742B8BF3E4643449642A8BF16467D
:101D40009E42A8BF1E46AE80AE7100EB81056E6854
:101D5000B288B2B1CA1F38BF621E02EB0E0A4244FB
:101D60008F1F38BFA71E07EB0E039245B8BF524620
:101D700047449A42A8BF1A46BA42A8BF3A46B28020
:101D8000B271AD68AA88B2B18A1F38BFA21E02EB39
:101D90000E0342444E1F38BFE61E06EB0E07934269
:101DA000B8BF1A464644BA42A8BF3A46B242A8BF94
:101DB0003246AA80AA7150F80950AA88002A9FD0FA
:101DC0004A1F38BFE21E02EB0E0342440E1F0029D9
:101DD00008BF042606EB0E079342B8BF1A464644D6
:101DE000BA42A8BF3A46B242A8BF3246AA80AA71F8
:101DF00086E7000094B040F60044C4F20104FEF708
:101E000001FC4FF000084FF480304FF0020ACDE99A
:101E10000908CDE90FA04FF4E0104FF0010911902F
:101E200008A8CDE90D88CDE90B88CDF82090CDF834
:101E30003090FEF771FD0F20CDE9020A4FF480606B
:101E4000CDE9050802A80221CDF81080FEF784FC38
:101E500041F21800C4F20200016804F5806741F005
:101E6000100101600168002201F010010891089939
:101E700001684FF4005641F020010160016801F053
:101E8000200108910899016841F00401016001688E
:101E900001F0040108910899016841F0080101600E
:101EA00000684FF4005100F0080008900898384688
:101EB000FEF78EFBA4F580652846302100224FF006
:101EC000300BFEF785FB2046AB210022FEF780FB9E
:101ED000CDE9086908AE38463146CDE90A8AFEF7F1
:101EE00063FA28463146CDE908B9CDE90A9AFEF7EA
:101EF0005BFA0320CDE9080920463146CDE90A9A6C
:101F0000FEF752FA4FF4805008A981E801032046F9
:101F10003146FEF749FA4FF40040CDE9080828465B
:101F20003146CDF82880FEF73FFAA820CDE9080910
:101F300020463146CDE90A8AFEF736FA5020CDE92F
:101F4000080820463146CDF82880FEF72DFA40F2E9
:101F50001806C2F2000604F50050B3464BF8080F0D
:101F600047204FF6FF71CBE901085846CDF82C8089
:101F7000CDE90988CDE90288CBE90318CBE90588CA
:101F8000FEF7FCFE4FF48050089008A95846FEF773
:101F9000D5FF02A95846FEF7B3FE40F2700AA4F539
:101FA0008430C2F2000A232140F2E7328AE80301BA
:101FB0005046CDF81480CDE90388CDE91288CDE9EB
:101FC0000D88CDE90B88CAE90328CAF81880FEF706
:101FD000D5FE4FF48050029002A95046FEF7AEFFA6
:101FE0005046FFF763FA12A95046FEF789FE6020BB
:101FF000CDE9080808A950460022CDF82880CDF880
:102000003080FFF74DF9504608A90422FFF748F940
:102010005046FFF71BF95846FEF75CFF5046FEF7A7
:1020200059FF50460021FFF7BBFA50460421FFF745
:10203000B7FA00F04BFB834640F2044000F04AFF41
:10204000019080F800845846FFF7DEFDDBF8C0A35E
:102050004FF47A70CDF820A08DF80890FEF790F933
:1020600038464FF400510022FEF7B2FA4FF4FA70EE
:10207000FEF786F938464FF400510122FEF7A8FA20
:102080004FF44870FEF77CF9204608210122FEF744
:102090009FFAB068C0F82480416AC9087C290BD82F
:1020A000416AC9087C2907D8416AC9087C2903D834
:1020B000416AB1F57A7FEFD3204608210022FEF76E
:1020C00087FA00BF28464FF40041FEF77BFA18B9A3
:1020D00086F80090F6E700BFB06886F80080C0F888
:1020E000248000BF28464FF40041FEF76BFA012818
:1020F000F8D0B0684CF60931406AC8F63D51A0FBF3
:102100000101480970800A20FEF73AF92046202193
:102110000122FEF75DFAB068C0F82480416AC90860
:102120007C290BD8416AC9087C2907D8416AC908AB
:102130007C2903D8416AB1F57A7FEFD3204620216C
:102140000022FEF745FA00BF20461021FEF73AFABA
:1021500010B986F80090F7E7B06886F80080C0F8FC
:10216000248000BF20461021FEF72CFA0128F9D068
:10217000B0684CF60931406AC8F63D51A0FB010138
:102180004809B0800A20FEF7FBF820468021012292
:10219000FEF71EFAB068C0F8248000BF416AC90883
:1021A0007C290BD8416AC9087C2907D8416AC9082B
:1021B0007C2903D8416AB1F57A7FEFD3204680218C
:1021C0000022FEF705FA00BF20464021FEF7FAF98B
:1021D00010B986F80090F7E7B06886F80080C0F87C
:1021E000248000BF20464021FEF7ECF90128F9D0F9
:1021F000B0684CF60931406AC8F63D51A0FB0101B8
:102200004809F0800A20FEF7BBF89AF8020000287F
:1022100040F0028170880A2854D89AF803009DF88B
:10222000081041EA0002481E07288AF8032049D80E
:10223000DFE800F004144824484848349AF80110B4
:102240009AF800004A1E0243D2B20F2A3AD80BEB8A
:10225000811101EB8000403804212EE09AF8000043
:102260009AF80110421C0A43D2B20F2A2AD80BEB6B
:10227000811101EB8000043008211EE09AF8011062
:102280009AF800004A1C0243D2B20F2A1AD80BEB6C
:10229000811101EB8000403001210EE09AF800002E
:1022A0009AF80110421E0A43D2B20F2A0AD80BEB49
:1022B000811101EB8000043802210068C2781143CB
:1022C000C17000BFF088072846D89DF808009AF82A
:1022D000031042000828D0B208BF0122114302288F
:1022E0008AF8031024D0082812D0042834D19AF890
:1022F00001109AF800004A1C0243D2B20F2A2BD8D0
:102300000BEB811101EB8000403001211FE000BF89
:102310009AF800009AF80110421E0A43D2B20F2A1E
:102320001AD80BEB811101EB8000043802210EE07A
:102330009AF800009AF80110421C0A43D2B20F2A00
:102340000AD80BEB811101EB8000043008210068F2
:10235000C2781143C17000BFB08807285AD89DF8D1
:1023600008009AF803104208012808BF0822114308
:102370004FF0FF3202EB500007288AF8031049D8CB
:10238000DFE800F004144824484848349AF8011063
:102390009AF800004A1E0243D2B20F2A3AD80BEB39
:1023A000811101EB8000403804212EE09AF80000F2
:1023B0009AF80110421C0A43D2B20F2A2AD80BEB1A
:1023C000811101EB8000043008211EE09AF8011011
:1023D0009AF800004A1C0243D2B20F2A1AD80BEB1B
:1023E000811101EB8000403001210EE09AF80000DD
:1023F0009AF80110421E0A43D2B20F2A0AD80BEBF8
:10240000811101EB8000043802210068C278114379
:10241000C17000BF8AF80290019A5046594600F0F8
:1024200015FA504659460022FFF7D6FA034608A887
:1024300002A95A4600F03AF838464FF400510022FB
:10244000FEF7C6F86420FDF79BFF38464FF40051B5
:102450000122FEF7BDF86420FDF792FFDDF820A011
:102460009AF80100073801283FF60AAE9AF80000F2
:10247000073801283FF604AE5846002100F05AFA0A
:1024800038464FF400510022FEF7A2F84FF47A705C
:10249000FDF776FF38464FF400510122FEF798F819
:1024A0004FF47A70FDF76CFFEAE700002DE9F04F7A
:1024B00081B08946097800928900B1FBF3F19B460F
:1024C0000A0608BF0821CAB2202A08BF0221C9B2E1
:1024D00001390F29824616D8DFE801F0080C1515DE
:1024E000151515101515151515151508FFF78EF985
:1024F00006E000BFFFF722FA02E000BFFFF7D2F9C3
:10250000C820FDF73DFFABF10104072C40F24D362A
:102510002CD8DFE804F0050D2B132B2B2B1900BF53
:10252000DAF80000C078400713D440F24D361DE0C1
:10253000DAF80000C0780007F7D50AE0DAF8000002
:10254000C078C007F1D004E0DAF80000C078800756
:10255000EBD5FFF79DF84FF4CD70FDF711FFFFF7B6
:102560002DF96420FDF70CFF40F2753640F60005AA
:10257000C4F20105FFF7ECF83046FDF701FFFFF765
:102580001DF905F58066304608210122FEF720F886
:1025900040F21807C2F20007B8680021416200BF8C
:1025A000416AC9087C290BD8416AC9087C2907D827
:1025B000416AC9087C2903D8416AB1F57A7FEFD313
:1025C0003046082100220026FEF702F828464FF484
:1025D0000041FDF7F7FF50B94FF0010828464FF4CE
:1025E000004187F80080FDF7EDFF0028F6D0B868BD
:1025F0003E70466228464FF40041FDF7E3FF012894
:10260000F8D0B868406AFDF7FCFD43F23333C4F2FA
:1026100017034FF03332FDF785FDFDF7FFFD78809E
:102620000A20FDF7ADFE7888632811D8FFF790F8EF
:102630004FF4D270FDF7A4FEFFF7C0F85020FDF76D
:102640009FFEFFF755F8AA20FDF79AFEFFF7B6F8B0
:10265000072C89F800B036D8DFE804F00410351CE8
:1026600035353528DAF80000009A4178007802EB19
:10267000811101EB8000403822E000BFDAF8000051
:10268000009A4178007802EB811101EB8000043060
:1026900016E000BFDAF80000009A4178007802EBFB
:1026A000811101EB800040300AE000BFDAF8000041
:1026B000009A4178007802EB811101EB8000043828
:1026C0000068CAF8000001B0BDE8F08F2DE9F04FB6
:1026D00081B04FF4806000F0FDFB044600256FF0F0
:1026E0001F060F274FF000084FF00009082000F0E8
:1026F000F1FB80F801900570458044F8080008203F
:1027000004EB080A00F0E6FB012180F8019001705B
:102710004580CAF80400082000F0DCFB022180F8A4
:10272000019001704580CAF80800082000F0D2FB33
:10273000032180F8019001704580CAF80C00082040
:1027400000F0C8FB042180F8019001704580CAF8B0
:102750001000082000F0BEFB052180F801900170F8
:102760004580CAF81400082000F0B4FB062180F868
:10277000019001704580CAF81800082000F0AAFBFB
:10278000072104EB060B80F8019001704580CBF81F
:102790003C00082000F09EFB082180F801900170A9
:1027A0004580CBF84000082000F094FB092180F818
:1027B000019001704580CAF82400082000F08AFBCF
:1027C0000A2180F8019001704580CAF8280008208D
:1027D00000F080FB0B2180F8019001704580CAF861
:1027E0002C00082000F076FB0C2180F8019001708D
:1027F0004580CAF83000082000F06CFB0D2180F8FD
:10280000019001704580CAF83400082000F062FB96
:102810000E2180F8019001704580CAF83800082028
:1028200000F058FB08F1400880F8019009F1010917
:10283000B8F5806F06F1400607704580CAF83C0085
:102840007FF454AF204601B0BDE8F08F2DE9F0438E
:1028500081B0884692F8001491464F1C42F821003E
:1028600003E000BF28062F4660D07D1EECB259F869
:10287000246041463046012289F80054FFF7ACF845
:10288000B1888142EED8317872784B1E1343DBB2A7
:102890000F2B00F10100B0800DD8F07800070AD4AA
:1028A00008EB821000EB810050F8040C3D4649F81B
:1028B000240089F80074501C0843C0B20F280DD8BA
:1028C000F07840070AD408EB821000EB8100006C1E
:1028D000EBB2013549F8230089F80054481C104335
:1028E000C0B20F280DD8F07880070AD408EB821008
:1028F00000EB81004068EBB2013549F8230089F80C
:102900000054501E0843C0B20F28ABD8F078C0075F
:10291000A8D108EB821000EB810050F8400CE9B21E
:10292000013549F8210089F800549BE701B0BDE862
:10293000F08300002DE9F04F85B0824640F204405C
:10294000884600F0C7FA0024814680F8004440F22F
:10295000044000F0BFFA0AF1400CFF2280F8004466
:102960005AF804700AEB0403BA80D3E90175D3E97D
:102970000361BA80AA80B2808A80D3E905178A8071
:10298000BA80D3E907178A80BA80D3E909178A8009
:10299000BA80D3E90B178A80BA80D3E90D178A80F1
:1029A0000CEB0401BA8051F8041C5CF804708A80B6
:1029B000BA80D3E9111780348A80BA80D3E913171B
:1029C000B4F5806F8A80BA80D3E915178A80BA80FF
:1029D000D3E917178A80BA80D3E919178A80BA8099
:1029E000D3E91B178A80BA80D3E91D178A80D96F73
:1029F000BA808A80B4D1B8F1010F13D1DAE9771225
:102A0000DAE987370026BE8096809E808E80022677
:102A100089F80064C9E90037C9E902124FF00408D7
:102A200008E000BFDAF8C01300224FF001088A80E6
:102A3000C9F80010002189F80084CDF804A00AE04C
:102A4000002000998CF800045FEA086001F10101A0
:102A5000604600F0ED810091C9B2CC468146C34684
:102A60004A1C4FF00008CDF808C004920BE000BFEC
:102A700008F101089A8049F8273089F8008400BFDE
:102A80005FEA0B60DCD0ABF1010B5FFA8BF15CF815
:102A9000214023786778591E3943C9B20F296BD872
:102AA000E178090768D40AEB871101EB830151F83B
:102AB000046CB1888A425FD25FFA88FABAF1000FDB
:102AC00050D0D9F80010B14253D0CAF1000CAAF18D
:102AD000010500218D4227D009EB810EDEF804208C
:102AE000B24227D040460CEB010818F1020229D06F
:102AF000DEF80820B24227D018F1030228D0DEF811
:102B00000C20B24226D018F1040201F1040123D0B6
:102B1000DEF810208046B242049ADBD1DDF808C00E
:102B200051451FD225E000BFDDF808C001315145F5
:102B300018D21EE0DDF808C041F00101049A5145A9
:102B400010D216E0023107E041F0020104E000BFBC
:102B5000033101E041F00301DDF808C08046049A2A
:102B6000514506D308F10108B28049F82A6089F876
:102B70000084DDF804A000BF791C1943C9B20F29F5
:102B80004ED8E17849074BD40AEB871101EB83015A
:102B90000E6CB1888A4243D25FFA88FEBEF1000F04
:102BA00035D0D9F80010B14229D0CDF80C80CEF143
:102BB000000CAEF101080021884523D009EB810209
:102BC0005568B54200F0C6800CEB0105A81C00F06A
:102BD000D7809068B04200F0E980E81C00F0FC80EB
:102BE000D068B04200F00E81281D01F1040102D02E
:102BF0001069B042E0D1DDE902C8714507D2049AFC
:102C00000EE000BF0131DDE902C87145F7D3049A37
:102C100008F10108B28049F82E6089F8008400BFED
:102C2000581C3843C0B20F284CD8E078800749D4EC
:102C30000AEB871000EB83004668B088824241D2DD
:102C40005FFA88FEBEF1000F33D0D9F80000B04221
:102C500028D0CDF80C80CEF1000CAEF10108002197
:102C6000884521D009EB81025068B0427AD00CEB44
:102C70000105A81C00F08C809068B04200F09E8096
:102C8000E81C00F0B180D068B04200F0C380281D7D
:102C900001F1040102D01069B042E1D1DDE902C8BE
:102CA000714506D2049A0DE00131DDE902C8714593
:102CB000F8D3049A08F10108B28049F82E6089F827
:102CC000008400BF781E1843C0B20F283FF6D8AE6C
:102CD000E078C0077FF4D4AE0AEB871000EB8300E6
:102CE00050F8403C98888242BFF4CAAE5FFA88F739
:102CF000002F3FF4BDAED9F8000098423FF4C0AEBB
:102D0000C7F1000E7E1E00218E421DD009EB810509
:102D1000686898422ED00EEB0104A01C40D0A86831
:102D2000984253D0E01C67D0E868984200F07A805F
:102D3000201D01F1040102D028699842E4D1B94272
:102D4000BFF496AE9CE600BF0131B942FFF498AEE5
:102D50008EE600BF41F00101DDE902C87145FFF4D4
:102D60004EAF54E741F00101DDE902C8714599D346
:102D70009FE700BF41F00101B942BFF479AE7FE6A1
:102D80000231DDE902C87145FFF439AF3FE700BF0A
:102D90000231DDE902C87145FFF484AF89E700BF65
:102DA0000231B942BFF464AE6AE600BF41F00201ED
:102DB000DDE902C87145FFF422AF28E741F00201C6
:102DC000DDE902C87145FFF46DAF72E741F0020121
:102DD000B942BFF44DAE53E60331DDE902C8714597
:102DE000BFF415AF0BE700BF0331DDE902C8714541
:102DF000BFF45FAF56E700BF0331B942BFF438AE4E
:102E00003EE600BF41F00301DDE902C87145FFF471
:102E1000F6AEFCE641F00301DDE902C87145FFF4BE
:102E200041AF46E741F00301B942BFF421AE27E6C6
:102E30004846644600F026F894F8004464B10298CD
:102E40000026051F55F82400671E00F01BF845F802
:102E50002460012C3C46F5D8029805B0BDE8F04F3F
:102E600000F010B802E008C8121F08C1002AFAD109
:102E700070477047002001E001C1121F002AFBD1FA
:102E80007047000010B5002821D0114B0022001F10
:102E9000196803E0814203D80A4649680029F9D13C
:102EA00052B11368841A9C4204D10068184410601F
:102EB000104602E0506000E0186039B102680B1A59
:102EC000934203D10B681A4402604968416010BD07
:102ED00000000020F0B50B30154D20F00701002454
:102EE000144A0FE003688B420BD38B4205D95E1A5C
:102EF00043184768C3E9006700E04368136002C0F5
:102F000004E0021D10680028ECD12046002802D100
:102F1000286808B10020F0BD064A07481060074A3B
:102F2000121A22F00702C0E9002401202860D7E726
:102F30000400002000000020C40000200021002028
:102F40000000000000000000010203040607080959
:102F5000010202030405060708090A0B0C0D0E0FF7
:102F600010100000882F000800000020180000004A
:102F7000642E0008A02F000818000020E82200009E
:102F8000742E000800000000000000000000000097
:102F900001000000100000000024F4000000000008
:04000005080000ED02
:00000001FF
